{
  "contractName": "ClauseRegistry",
  "abi": [
    {
      "constant": false,
      "inputs": [
        {
          "name": "clause",
          "type": "address"
        },
        {
          "name": "author",
          "type": "address"
        },
        {
          "name": "authorFee",
          "type": "uint256"
        },
        {
          "name": "registryFee",
          "type": "uint256"
        }
      ],
      "name": "registerClause",
      "outputs": [],
      "payable": false,
      "stateMutability": "nonpayable",
      "type": "function"
    },
    {
      "constant": true,
      "inputs": [
        {
          "name": "clause",
          "type": "address"
        }
      ],
      "name": "getStats",
      "outputs": [
        {
          "name": "success",
          "type": "uint256"
        },
        {
          "name": "failure",
          "type": "uint256"
        }
      ],
      "payable": false,
      "stateMutability": "view",
      "type": "function"
    },
    {
      "constant": false,
      "inputs": [
        {
          "name": "clause",
          "type": "address"
        },
        {
          "name": "success",
          "type": "bool"
        },
        {
          "name": "appeal",
          "type": "bool"
        }
      ],
      "name": "reportExecution",
      "outputs": [],
      "payable": true,
      "stateMutability": "payable",
      "type": "function"
    }
  ],
  "bytecode": "0x608060405234801561001057600080fd5b506105c0806100206000396000f3fe6080604052600436106100345760003560e01c806362b2c08c14610039578063c23f85d6146100be578063d7cb6b031461012a575b600080fd5b34801561004557600080fd5b506100bc6004803603608081101561005c57600080fd5b81019080803573ffffffffffffffffffffffffffffffffffffffff169060200190929190803573ffffffffffffffffffffffffffffffffffffffff1690602001909291908035906020019092919080359060200190929190505050610186565b005b3480156100ca57600080fd5b5061010d600480360360208110156100e157600080fd5b81019080803573ffffffffffffffffffffffffffffffffffffffff1690602001909291905050506102f0565b604051808381526020018281526020019250505060405180910390f35b6101846004803603606081101561014057600080fd5b81019080803573ffffffffffffffffffffffffffffffffffffffff169060200190929190803515159060200190929190803515159060200190929190505050610380565b005b6040518060e001604052808473ffffffffffffffffffffffffffffffffffffffff168152602001600073ffffffffffffffffffffffffffffffffffffffff168152602001838152602001600081526020018281526020016000815260200160008152506000808673ffffffffffffffffffffffffffffffffffffffff1673ffffffffffffffffffffffffffffffffffffffff16815260200190815260200160002060008201518160000160006101000a81548173ffffffffffffffffffffffffffffffffffffffff021916908373ffffffffffffffffffffffffffffffffffffffff16021790555060208201518160010160006101000a81548173ffffffffffffffffffffffffffffffffffffffff021916908373ffffffffffffffffffffffffffffffffffffffff16021790555060408201518160020155606082015181600301556080820151816004015560a0820151816005015560c0820151816006015590505050505050565b6000806000808473ffffffffffffffffffffffffffffffffffffffff1673ffffffffffffffffffffffffffffffffffffffff1681526020019081526020016000206005015491506000808473ffffffffffffffffffffffffffffffffffffffff1673ffffffffffffffffffffffffffffffffffffffff168152602001908152602001600020600601549050915091565b81156105045760016000808573ffffffffffffffffffffffffffffffffffffffff1673ffffffffffffffffffffffffffffffffffffffff16815260200190815260200160002060050154016000808573ffffffffffffffffffffffffffffffffffffffff1673ffffffffffffffffffffffffffffffffffffffff16815260200190815260200160002060050181905550806104ff576000808473ffffffffffffffffffffffffffffffffffffffff1673ffffffffffffffffffffffffffffffffffffffff16815260200190815260200160002060000160009054906101000a900473ffffffffffffffffffffffffffffffffffffffff1673ffffffffffffffffffffffffffffffffffffffff166108fc6000808673ffffffffffffffffffffffffffffffffffffffff1673ffffffffffffffffffffffffffffffffffffffff168152602001908152602001600020600201549081150290604051600060405180830381858888f193505050501580156104fd573d6000803e3d6000fd5b505b61058f565b60016000808573ffffffffffffffffffffffffffffffffffffffff1673ffffffffffffffffffffffffffffffffffffffff16815260200190815260200160002060060154016000808573ffffffffffffffffffffffffffffffffffffffff1673ffffffffffffffffffffffffffffffffffffffff168152602001908152602001600020600601819055505b50505056fea165627a7a723058205814fae9698ae2ced361e02b73a29d6b7df8f31245289f1d32b69e94de95d24f0029",
  "source": "\npragma solidity ^0.5.2;\n\n\ncontract ClauseRegistry {\n\n    struct Stats {\n        address payable author;\n        address payable auditor;\n        uint256 authorFee;\n        uint256 auditorFee;\n        uint256 registryFee;\n        uint256 successCount;\n        uint256 failureCount;\n    }\n\n    mapping(address => Stats) tracking;\n\n    function registerClause(address clause, address payable author, uint256 authorFee, uint256 registryFee) public {\n        tracking[clause] = Stats(author, address(0), authorFee, 0, registryFee, 0, 0);\n    }\n\n    function getStats(address clause) public view returns(uint256 success, uint256 failure) {\n        success = tracking[clause].successCount;\n        failure = tracking[clause].failureCount;\n    }\n\n    function reportExecution(address clause, bool success, bool appeal) public payable {\n        if (success) {\n            tracking[clause].successCount = tracking[clause].successCount + 1;\n            if (!appeal) {\n                tracking[clause].author.transfer(tracking[clause].authorFee);\n            }\n        } else {\n            tracking[clause].failureCount = tracking[clause].failureCount + 1;\n        }\n    }\n\n}\n",
  "sourcePath": "/Users/dhen/Documents/Alice/popsicle/contracts/ClauseRegistry.sol",
  "compiler": {
    "name": "solc",
    "version": "0.5.8+commit.23d335f2.Emscripten.clang"
  },
  "schemaVersion": "3.0.10",
  "updatedAt": "2019-08-24T16:08:21.586Z",
  "devdoc": {
    "methods": {}
  },
  "userdoc": {
    "methods": {}
  }
}