{
  "contractName": "CommissionerFunding",
  "abi": [
    {
      "constant": true,
      "inputs": [],
      "name": "num",
      "outputs": [
        {
          "name": "",
          "type": "uint256"
        }
      ],
      "payable": false,
      "stateMutability": "view",
      "type": "function"
    },
    {
      "constant": false,
      "inputs": [
        {
          "name": "_amount",
          "type": "uint256"
        }
      ],
      "name": "fund",
      "outputs": [],
      "payable": true,
      "stateMutability": "payable",
      "type": "function"
    }
  ],
  "bytecode": "0x608060405234801561001057600080fd5b50610105806100206000396000f3fe60806040526004361060265760003560e01c80634e70b1dc14602b578063ca1d209d146053575b600080fd5b348015603657600080fd5b50603d607e565b6040518082815260200191505060405180910390f35b607c60048036036020811015606757600080fd5b81019080803590602001909291905050506084565b005b60045481565b600060405180807f4d41585f444f4e4154494f4e0000000000000000000000000000000000000000815250600c01905090815260200160405180910390205481111560ce57600080fd5b607b6004819055505056fea165627a7a72305820304a02abb040cd835f80747f285d7f9b7361266e4caf3406c4c2acc6e28ab83a0029",
  "source": "\npragma solidity ^0.5.2;\n\nimport './IFunding.sol';\nimport './BaseClause.sol';\n\ncontract CommissionerFunding is IFunding, BaseClause {\n\n    uint public num;\n\n    function fund(uint256 _amount) public payable {\n        require(_amount <= values['MAX_DONATION']);\n        num = 123;\n    }\n}\n",
  "sourcePath": "/Users/dhen/Documents/Alice/popsicle/contracts/CommissionerFunding.sol",
  "compiler": {
    "name": "solc",
    "version": "0.5.8+commit.23d335f2.Emscripten.clang"
  },
  "schemaVersion": "3.0.10",
  "updatedAt": "2019-08-24T16:08:21.588Z",
  "devdoc": {
    "methods": {}
  },
  "userdoc": {
    "methods": {}
  }
}