{
  "contractName": "ImpactInvestment",
  "abi": [
    {
      "constant": true,
      "inputs": [],
      "name": "validationClause",
      "outputs": [
        {
          "name": "",
          "type": "address"
        }
      ],
      "payable": false,
      "stateMutability": "view",
      "type": "function"
    },
    {
      "constant": true,
      "inputs": [],
      "name": "clauseRegistry",
      "outputs": [
        {
          "name": "",
          "type": "address"
        }
      ],
      "payable": false,
      "stateMutability": "view",
      "type": "function"
    },
    {
      "constant": true,
      "inputs": [],
      "name": "investmentClause",
      "outputs": [
        {
          "name": "",
          "type": "address"
        }
      ],
      "payable": false,
      "stateMutability": "view",
      "type": "function"
    },
    {
      "constant": true,
      "inputs": [],
      "name": "redemptionClause",
      "outputs": [
        {
          "name": "",
          "type": "address"
        }
      ],
      "payable": false,
      "stateMutability": "view",
      "type": "function"
    },
    {
      "constant": true,
      "inputs": [
        {
          "name": "symbol",
          "type": "string"
        }
      ],
      "name": "getRole",
      "outputs": [
        {
          "name": "",
          "type": "address"
        }
      ],
      "payable": false,
      "stateMutability": "view",
      "type": "function"
    },
    {
      "constant": false,
      "inputs": [
        {
          "name": "symbol",
          "type": "string"
        },
        {
          "name": "val",
          "type": "uint256"
        }
      ],
      "name": "setValue",
      "outputs": [],
      "payable": false,
      "stateMutability": "nonpayable",
      "type": "function"
    },
    {
      "constant": false,
      "inputs": [
        {
          "name": "_index",
          "type": "uint256"
        }
      ],
      "name": "appeal",
      "outputs": [],
      "payable": false,
      "stateMutability": "nonpayable",
      "type": "function"
    },
    {
      "constant": true,
      "inputs": [
        {
          "name": "symbol",
          "type": "string"
        }
      ],
      "name": "getValue",
      "outputs": [
        {
          "name": "",
          "type": "uint256"
        }
      ],
      "payable": false,
      "stateMutability": "view",
      "type": "function"
    },
    {
      "constant": true,
      "inputs": [],
      "name": "fundingClause",
      "outputs": [
        {
          "name": "",
          "type": "address"
        }
      ],
      "payable": false,
      "stateMutability": "view",
      "type": "function"
    },
    {
      "constant": false,
      "inputs": [
        {
          "name": "symbol",
          "type": "string"
        },
        {
          "name": "_role",
          "type": "address"
        }
      ],
      "name": "setRole",
      "outputs": [],
      "payable": false,
      "stateMutability": "nonpayable",
      "type": "function"
    },
    {
      "constant": true,
      "inputs": [],
      "name": "funded",
      "outputs": [
        {
          "name": "",
          "type": "uint256"
        }
      ],
      "payable": false,
      "stateMutability": "view",
      "type": "function"
    },
    {
      "constant": true,
      "inputs": [],
      "name": "disputeManager",
      "outputs": [
        {
          "name": "",
          "type": "address"
        }
      ],
      "payable": false,
      "stateMutability": "view",
      "type": "function"
    },
    {
      "inputs": [
        {
          "name": "_registry",
          "type": "address"
        }
      ],
      "payable": false,
      "stateMutability": "nonpayable",
      "type": "constructor"
    },
    {
      "constant": false,
      "inputs": [
        {
          "name": "clause",
          "type": "address"
        }
      ],
      "name": "setFundingClause",
      "outputs": [],
      "payable": false,
      "stateMutability": "nonpayable",
      "type": "function"
    },
    {
      "constant": false,
      "inputs": [
        {
          "name": "_amount",
          "type": "uint256"
        }
      ],
      "name": "fund",
      "outputs": [],
      "payable": true,
      "stateMutability": "payable",
      "type": "function"
    }
  ],
  "bytecode": "0x608060405234801561001057600080fd5b506040516020806118a78339810180604052602081101561003057600080fd5b81019080805190602001909291905050508080600260006101000a81548173ffffffffffffffffffffffffffffffffffffffff021916908373ffffffffffffffffffffffffffffffffffffffff16021790555060405161008f906100f3565b604051809103906000f0801580156100ab573d6000803e3d6000fd5b50600360006101000a81548173ffffffffffffffffffffffffffffffffffffffff021916908373ffffffffffffffffffffffffffffffffffffffff1602179055505050610100565b6105b7806112f083390190565b6111e18061010f6000396000f3fe6080604052600436106100dd5760003560e01c8063960384a01161007f578063ca1d209d11610059578063ca1d209d146105d7578063cfde189014610605578063f3a504f2146106ed578063f544c3a614610718576100dd565b8063960384a0146104535780639d39edc91461052f578063bd29b32f14610586576100dd565b806363923974116100bb57806363923974146101e75780636e9067fb1461023e5780637c2da7aa146103465780637e69b7b014610418576100dd565b80630ae1f3b8146100e25780635853e10f14610139578063632636aa14610190575b600080fd5b3480156100ee57600080fd5b506100f761076f565b604051808273ffffffffffffffffffffffffffffffffffffffff1673ffffffffffffffffffffffffffffffffffffffff16815260200191505060405180910390f35b34801561014557600080fd5b5061014e610795565b604051808273ffffffffffffffffffffffffffffffffffffffff1673ffffffffffffffffffffffffffffffffffffffff16815260200191505060405180910390f35b34801561019c57600080fd5b506101a56107bb565b604051808273ffffffffffffffffffffffffffffffffffffffff1673ffffffffffffffffffffffffffffffffffffffff16815260200191505060405180910390f35b3480156101f357600080fd5b506101fc6107e1565b604051808273ffffffffffffffffffffffffffffffffffffffff1673ffffffffffffffffffffffffffffffffffffffff16815260200191505060405180910390f35b34801561024a57600080fd5b506103046004803603602081101561026157600080fd5b810190808035906020019064010000000081111561027e57600080fd5b82018360208201111561029057600080fd5b803590602001918460018302840111640100000000831117156102b257600080fd5b91908080601f016020809104026020016040519081016040528093929190818152602001838380828437600081840152601f19601f820116905080830192505050505050509192919290505050610807565b604051808273ffffffffffffffffffffffffffffffffffffffff1673ffffffffffffffffffffffffffffffffffffffff16815260200191505060405180910390f35b34801561035257600080fd5b506104166004803603604081101561036957600080fd5b810190808035906020019064010000000081111561038657600080fd5b82018360208201111561039857600080fd5b803590602001918460018302840111640100000000831117156103ba57600080fd5b91908080601f016020809104026020016040519081016040528093929190818152602001838380828437600081840152601f19601f8201169050808301925050505050505091929192908035906020019092919050505061089a565b005b34801561042457600080fd5b506104516004803603602081101561043b57600080fd5b810190808035906020019092919050505061090c565b005b34801561045f57600080fd5b506105196004803603602081101561047657600080fd5b810190808035906020019064010000000081111561049357600080fd5b8201836020820111156104a557600080fd5b803590602001918460018302840111640100000000831117156104c757600080fd5b91908080601f016020809104026020016040519081016040528093929190818152602001838380828437600081840152601f19601f820116905080830192505050505050509192919290505050610c6a565b6040518082815260200191505060405180910390f35b34801561053b57600080fd5b50610544610cdc565b604051808273ffffffffffffffffffffffffffffffffffffffff1673ffffffffffffffffffffffffffffffffffffffff16815260200191505060405180910390f35b34801561059257600080fd5b506105d5600480360360208110156105a957600080fd5b81019080803573ffffffffffffffffffffffffffffffffffffffff169060200190929190505050610d02565b005b610603600480360360208110156105ed57600080fd5b8101908080359060200190929190505050610d46565b005b34801561061157600080fd5b506106eb6004803603604081101561062857600080fd5b810190808035906020019064010000000081111561064557600080fd5b82018360208201111561065757600080fd5b8035906020019184600183028401116401000000008311171561067957600080fd5b91908080601f016020809104026020016040519081016040528093929190818152602001838380828437600081840152601f19601f820116905080830192505050505050509192919290803573ffffffffffffffffffffffffffffffffffffffff169060200190929190505050610e1b565b005b3480156106f957600080fd5b50610702610ec7565b6040518082815260200191505060405180910390f35b34801561072457600080fd5b5061072d610ecd565b604051808273ffffffffffffffffffffffffffffffffffffffff1673ffffffffffffffffffffffffffffffffffffffff16815260200191505060405180910390f35b600760009054906101000a900473ffffffffffffffffffffffffffffffffffffffff1681565b600260009054906101000a900473ffffffffffffffffffffffffffffffffffffffff1681565b600660009054906101000a900473ffffffffffffffffffffffffffffffffffffffff1681565b600860009054906101000a900473ffffffffffffffffffffffffffffffffffffffff1681565b60006001826040518082805190602001908083835b6020831061083f578051825260208201915060208101905060208303925061081c565b6001836020036101000a038019825116818451168082178552505050505050905001915050908152602001604051809103902060009054906101000a900473ffffffffffffffffffffffffffffffffffffffff169050919050565b806000836040518082805190602001908083835b602083106108d157805182526020820191506020810190506020830392506108ae565b6001836020036101000a0380198251168184511680821785525050505050509050019150509081526020016040518091039020819055505050565b600060606000600360009054906101000a900473ffffffffffffffffffffffffffffffffffffffff1673ffffffffffffffffffffffffffffffffffffffff1663e3a96cbd856040518263ffffffff1660e01b81526004018082815260200191505060006040518083038186803b15801561098557600080fd5b505afa158015610999573d6000803e3d6000fd5b505050506040513d6000823e3d601f19601f8201168201806040525060608110156109c357600080fd5b810190808051906020019092919080516401000000008111156109e557600080fd5b828101905060208101848111156109fb57600080fd5b8151856001820283011164010000000082111715610a1857600080fd5b50509291906020018051906020019092919050505080935081945082955050505080610c6457600060608473ffffffffffffffffffffffffffffffffffffffff16846040518082805190602001908083835b60208310610a8d5780518252602082019150602081019050602083039250610a6a565b6001836020036101000a038019825116818451168082178552505050505050905001915050600060405180830381855af49150503d8060008114610aed576040519150601f19603f3d011682016040523d82523d6000602084013e610af2565b606091505b508092508193505050600260009054906101000a900473ffffffffffffffffffffffffffffffffffffffff1673ffffffffffffffffffffffffffffffffffffffff1663d7cb6b03868460016040518463ffffffff1660e01b8152600401808473ffffffffffffffffffffffffffffffffffffffff1673ffffffffffffffffffffffffffffffffffffffff16815260200183151515158152602001821515151581526020019350505050600060405180830381600087803b158015610bb557600080fd5b505af1158015610bc9573d6000803e3d6000fd5b505050508115610c6157600360009054906101000a900473ffffffffffffffffffffffffffffffffffffffff1673ffffffffffffffffffffffffffffffffffffffff1663c2b7b868876040518263ffffffff1660e01b815260040180828152602001915050600060405180830381600087803b158015610c4857600080fd5b505af1158015610c5c573d6000803e3d6000fd5b505050505b50505b50505050565b600080826040518082805190602001908083835b60208310610ca15780518252602082019150602081019050602083039250610c7e565b6001836020036101000a0380198251168184511680821785525050505050509050019150509081526020016040518091039020549050919050565b600560009054906101000a900473ffffffffffffffffffffffffffffffffffffffff1681565b80600560006101000a81548173ffffffffffffffffffffffffffffffffffffffff021916908373ffffffffffffffffffffffffffffffffffffffff16021790555050565b6000600560009054906101000a900473ffffffffffffffffffffffffffffffffffffffff169050606060405180807f66756e642875696e743235362900000000000000000000000000000000000000815250600d01905060405180910390208360405160200180837bffffffffffffffffffffffffffffffffffffffffffffffffffffffff19167bffffffffffffffffffffffffffffffffffffffffffffffffffffffff19168152600401828152602001925050506040516020818303038152906040529050610e168282610ef3565b505050565b806001836040518082805190602001908083835b60208310610e525780518252602082019150602081019050602083039250610e2f565b6001836020036101000a038019825116818451168082178552505050505050905001915050908152602001604051809103902060006101000a81548173ffffffffffffffffffffffffffffffffffffffff021916908373ffffffffffffffffffffffffffffffffffffffff1602179055505050565b60045481565b600360009054906101000a900473ffffffffffffffffffffffffffffffffffffffff1681565b600060608373ffffffffffffffffffffffffffffffffffffffff16836040518082805190602001908083835b60208310610f425780518252602082019150602081019050602083039250610f1f565b6001836020036101000a038019825116818451168082178552505050505050905001915050600060405180830381855af49150503d8060008114610fa2576040519150601f19603f3d011682016040523d82523d6000602084013e610fa7565b606091505b508092508193505050600260009054906101000a900473ffffffffffffffffffffffffffffffffffffffff1673ffffffffffffffffffffffffffffffffffffffff1663d7cb6b0334868560006040518563ffffffff1660e01b8152600401808473ffffffffffffffffffffffffffffffffffffffff1673ffffffffffffffffffffffffffffffffffffffff168152602001831515151581526020018215151515815260200193505050506000604051808303818588803b15801561106a57600080fd5b505af115801561107e573d6000803e3d6000fd5b5050505050816111af57600360009054906101000a900473ffffffffffffffffffffffffffffffffffffffff1673ffffffffffffffffffffffffffffffffffffffff16633f33c24d85856040518363ffffffff1660e01b8152600401808373ffffffffffffffffffffffffffffffffffffffff1673ffffffffffffffffffffffffffffffffffffffff16815260200180602001828103825283818151815260200191508051906020019080838360005b8381101561114957808201518184015260208101905061112e565b50505050905090810190601f1680156111765780820380516001836020036101000a031916815260200191505b509350505050600060405180830381600087803b15801561119657600080fd5b505af11580156111aa573d6000803e3d6000fd5b505050505b5050505056fea165627a7a7230582028716f2f5d51f1106fb1fc8ceb13059a59b9056ca304badaf530aad66ae429cb0029608060405234801561001057600080fd5b50610597806100206000396000f3fe608060405234801561001057600080fd5b506004361061004c5760003560e01c80633f33c24d146100515780639c63558a1461012c578063c2b7b8681461014a578063e3a96cbd14610178575b600080fd5b61012a6004803603604081101561006757600080fd5b81019080803573ffffffffffffffffffffffffffffffffffffffff169060200190929190803590602001906401000000008111156100a457600080fd5b8201836020820111156100b657600080fd5b803590602001918460018302840111640100000000831117156100d857600080fd5b91908080601f016020809104026020016040519081016040528093929190818152602001838380828437600081840152601f19601f82011690508083019250505050505050919291929050505061025d565b005b610134610349565b6040518082815260200191505060405180910390f35b6101766004803603602081101561016057600080fd5b8101908080359060200190929190505050610355565b005b6101a46004803603602081101561018e57600080fd5b810190808035906020019092919050505061038f565b604051808473ffffffffffffffffffffffffffffffffffffffff1673ffffffffffffffffffffffffffffffffffffffff1681526020018060200183151515158152602001828103825284818151815260200191508051906020019080838360005b83811015610220578082015181840152602081019050610205565b50505050905090810190601f16801561024d5780820380516001836020036101000a031916815260200191505b5094505050505060405180910390f35b600060405180606001604052808473ffffffffffffffffffffffffffffffffffffffff168152602001838152602001600015158152509080600181540180825580915050906001820390600052602060002090600302016000909192909190915060008201518160000160006101000a81548173ffffffffffffffffffffffffffffffffffffffff021916908373ffffffffffffffffffffffffffffffffffffffff16021790555060208201518160010190805190602001906103219291906104c6565b5060408201518160020160006101000a81548160ff0219169083151502179055505050505050565b60008080549050905090565b60016000828154811061036457fe5b906000526020600020906003020160020160006101000a81548160ff02191690831515021790555050565b6000606060008084815481106103a157fe5b906000526020600020906003020160000160009054906101000a900473ffffffffffffffffffffffffffffffffffffffff16600085815481106103e057fe5b9060005260206000209060030201600101600086815481106103fe57fe5b906000526020600020906003020160020160009054906101000a900460ff16818054600181600116156101000203166002900480601f0160208091040260200160405190810160405280929190818152602001828054600181600116156101000203166002900480156104b25780601f10610487576101008083540402835291602001916104b2565b820191906000526020600020905b81548152906001019060200180831161049557829003601f168201915b505050505091509250925092509193909250565b828054600181600116156101000203166002900490600052602060002090601f016020900481019282601f1061050757805160ff1916838001178555610535565b82800160010185558215610535579182015b82811115610534578251825591602001919060010190610519565b5b5090506105429190610546565b5090565b61056891905b8082111561056457600081600090555060010161054c565b5090565b9056fea165627a7a723058209562d8b664c0231e7f1e8d869bc058448b961c401e842fc58955a8befa4b91880029",
  "source": "\npragma solidity ^0.5.2;\n\nimport './BaseClause.sol';\nimport './LegalContract.sol';\n\ncontract ImpactInvestment is LegalContract {\n\n    uint256 public funded;\n\n    BaseClause public fundingClause;\n    BaseClause public investmentClause;\n    BaseClause public validationClause;\n    BaseClause public redemptionClause;\n\n    constructor(ClauseRegistry _registry) LegalContract(_registry) public { }\n\n    function setFundingClause(BaseClause clause) public {\n        fundingClause = clause;\n    }\n\n    function fund(uint256 _amount) public payable {\n        address target = address(fundingClause);\n        bytes memory data = abi.encodePacked(bytes4(keccak256(\"fund(uint256)\")), _amount);\n\n        execute(target, data);\n    }\n\n}\n",
  "sourcePath": "/Users/dhen/Documents/Alice/popsicle/contracts/ImpactInvestment.sol",
  "compiler": {
    "name": "solc",
    "version": "0.5.8+commit.23d335f2.Emscripten.clang"
  },
  "schemaVersion": "3.0.10",
  "updatedAt": "2019-08-24T16:08:21.591Z",
  "devdoc": {
    "methods": {}
  },
  "userdoc": {
    "methods": {}
  }
}