{
  "contractName": "ImpactInvestment",
  "abi": [
    {
      "constant": true,
      "inputs": [],
      "name": "validationClause",
      "outputs": [
        {
          "name": "",
          "type": "address"
        }
      ],
      "payable": false,
      "stateMutability": "view",
      "type": "function"
    },
    {
      "constant": true,
      "inputs": [],
      "name": "updateManager",
      "outputs": [
        {
          "name": "",
          "type": "address"
        }
      ],
      "payable": false,
      "stateMutability": "view",
      "type": "function"
    },
    {
      "constant": true,
      "inputs": [],
      "name": "clauseRegistry",
      "outputs": [
        {
          "name": "",
          "type": "address"
        }
      ],
      "payable": false,
      "stateMutability": "view",
      "type": "function"
    },
    {
      "constant": true,
      "inputs": [],
      "name": "investmentClause",
      "outputs": [
        {
          "name": "",
          "type": "address"
        }
      ],
      "payable": false,
      "stateMutability": "view",
      "type": "function"
    },
    {
      "constant": true,
      "inputs": [],
      "name": "redemptionClause",
      "outputs": [
        {
          "name": "",
          "type": "address"
        }
      ],
      "payable": false,
      "stateMutability": "view",
      "type": "function"
    },
    {
      "constant": true,
      "inputs": [
        {
          "name": "symbol",
          "type": "string"
        }
      ],
      "name": "getRole",
      "outputs": [
        {
          "name": "",
          "type": "address"
        }
      ],
      "payable": false,
      "stateMutability": "view",
      "type": "function"
    },
    {
      "constant": false,
      "inputs": [
        {
          "name": "symbol",
          "type": "string"
        },
        {
          "name": "val",
          "type": "uint256"
        }
      ],
      "name": "setValue",
      "outputs": [],
      "payable": false,
      "stateMutability": "nonpayable",
      "type": "function"
    },
    {
      "constant": false,
      "inputs": [
        {
          "name": "_index",
          "type": "uint256"
        }
      ],
      "name": "appeal",
      "outputs": [],
      "payable": false,
      "stateMutability": "nonpayable",
      "type": "function"
    },
    {
      "constant": false,
      "inputs": [
        {
          "name": "_index",
          "type": "uint256"
        }
      ],
      "name": "update",
      "outputs": [],
      "payable": false,
      "stateMutability": "nonpayable",
      "type": "function"
    },
    {
      "constant": true,
      "inputs": [
        {
          "name": "symbol",
          "type": "string"
        }
      ],
      "name": "getValue",
      "outputs": [
        {
          "name": "",
          "type": "uint256"
        }
      ],
      "payable": false,
      "stateMutability": "view",
      "type": "function"
    },
    {
      "constant": true,
      "inputs": [],
      "name": "fundingClause",
      "outputs": [
        {
          "name": "",
          "type": "address"
        }
      ],
      "payable": false,
      "stateMutability": "view",
      "type": "function"
    },
    {
      "constant": false,
      "inputs": [
        {
          "name": "symbol",
          "type": "string"
        },
        {
          "name": "value",
          "type": "uint256"
        }
      ],
      "name": "addProposal",
      "outputs": [],
      "payable": false,
      "stateMutability": "nonpayable",
      "type": "function"
    },
    {
      "constant": false,
      "inputs": [
        {
          "name": "symbol",
          "type": "string"
        },
        {
          "name": "_role",
          "type": "address"
        }
      ],
      "name": "setRole",
      "outputs": [],
      "payable": false,
      "stateMutability": "nonpayable",
      "type": "function"
    },
    {
      "constant": true,
      "inputs": [],
      "name": "funded",
      "outputs": [
        {
          "name": "",
          "type": "uint256"
        }
      ],
      "payable": false,
      "stateMutability": "view",
      "type": "function"
    },
    {
      "constant": true,
      "inputs": [],
      "name": "disputeManager",
      "outputs": [
        {
          "name": "",
          "type": "address"
        }
      ],
      "payable": false,
      "stateMutability": "view",
      "type": "function"
    },
    {
      "inputs": [
        {
          "name": "_registry",
          "type": "address"
        },
        {
          "name": "_fundingClause",
          "type": "address"
        },
        {
          "name": "_arbiter",
          "type": "address"
        },
        {
          "name": "valNames",
          "type": "string[]"
        },
        {
          "name": "values",
          "type": "uint256[]"
        }
      ],
      "payable": false,
      "stateMutability": "nonpayable",
      "type": "constructor"
    },
    {
      "constant": false,
      "inputs": [
        {
          "name": "clause",
          "type": "address"
        }
      ],
      "name": "setFundingClause",
      "outputs": [],
      "payable": false,
      "stateMutability": "nonpayable",
      "type": "function"
    },
    {
      "constant": false,
      "inputs": [
        {
          "name": "_amount",
          "type": "uint256"
        }
      ],
      "name": "fund",
      "outputs": [],
      "payable": true,
      "stateMutability": "payable",
      "type": "function"
    }
  ],
  "bytecode": "0x60806040523480156200001157600080fd5b5060405162002982380380620029828339810180604052620000379190810190620004a8565b8480600260006101000a81548173ffffffffffffffffffffffffffffffffffffffff021916908373ffffffffffffffffffffffffffffffffffffffff1602179055506040516200008790620002ca565b604051809103906000f080158015620000a4573d6000803e3d6000fd5b50600360006101000a81548173ffffffffffffffffffffffffffffffffffffffff021916908373ffffffffffffffffffffffffffffffffffffffff160217905550604051620000f390620002d8565b604051809103906000f08015801562000110573d6000803e3d6000fd5b50600460006101000a81548173ffffffffffffffffffffffffffffffffffffffff021916908373ffffffffffffffffffffffffffffffffffffffff1602179055505083600660006101000a81548173ffffffffffffffffffffffffffffffffffffffff021916908373ffffffffffffffffffffffffffffffffffffffff160217905550620001da6040518060400160405280600781526020017f4152424954455200000000000000000000000000000000000000000000000000815250846200023e60201b60201c565b60008090505b8251811015620002325762000224838281518110620001fb57fe5b60200260200101518383815181106200021057fe5b6020026020010151620002a160201b60201c565b8080600101915050620001e0565b50505050505062000773565b8060018360405162000251919062000593565b908152602001604051809103902060006101000a81548173ffffffffffffffffffffffffffffffffffffffff021916908373ffffffffffffffffffffffffffffffffffffffff1602179055505050565b80600083604051620002b4919062000593565b9081526020016040518091039020819055505050565b6105b78062001ec983390190565b610502806200248083390190565b600081519050620002f7816200070b565b92915050565b600082601f8301126200030f57600080fd5b8151620003266200032082620005da565b620005ac565b9150818183526020840193506020810190508360005b8381101562000370578151860162000355888262000435565b8452602084019350602083019250506001810190506200033c565b5050505092915050565b600082601f8301126200038c57600080fd5b8151620003a36200039d8262000603565b620005ac565b91508181835260208401935060208101905083856020840282011115620003c957600080fd5b60005b83811015620003fd5781620003e2888262000491565b845260208401935060208301925050600181019050620003cc565b5050505092915050565b600081519050620004188162000725565b92915050565b6000815190506200042f816200073f565b92915050565b600082601f8301126200044757600080fd5b81516200045e62000458826200062c565b620005ac565b915080825260208301602083018583830111156200047b57600080fd5b62000488838284620006d5565b50505092915050565b600081519050620004a28162000759565b92915050565b600080600080600060a08688031215620004c157600080fd5b6000620004d1888289016200041e565b9550506020620004e48882890162000407565b9450506040620004f788828901620002e6565b935050606086015167ffffffffffffffff8111156200051557600080fd5b6200052388828901620002fd565b925050608086015167ffffffffffffffff8111156200054157600080fd5b6200054f888289016200037a565b9150509295509295909350565b6000620005698262000659565b62000575818562000664565b935062000587818560208601620006d5565b80840191505092915050565b6000620005a182846200055c565b915081905092915050565b6000604051905081810181811067ffffffffffffffff82111715620005d057600080fd5b8060405250919050565b600067ffffffffffffffff821115620005f257600080fd5b602082029050602081019050919050565b600067ffffffffffffffff8211156200061b57600080fd5b602082029050602081019050919050565b600067ffffffffffffffff8211156200064457600080fd5b601f19601f8301169050602081019050919050565b600081519050919050565b600081905092915050565b60006200067c82620006ab565b9050919050565b600062000690826200066f565b9050919050565b6000620006a4826200066f565b9050919050565b600073ffffffffffffffffffffffffffffffffffffffff82169050919050565b6000819050919050565b60005b83811015620006f5578082015181840152602081019050620006d8565b8381111562000705576000848401525b50505050565b62000716816200066f565b81146200072257600080fd5b50565b620007308162000683565b81146200073c57600080fd5b50565b6200074a8162000697565b81146200075657600080fd5b50565b6200076481620006cb565b81146200077057600080fd5b50565b61174680620007836000396000f3fe6080604052600436106100fe5760003560e01c806382ab890a11610095578063c208abdc11610064578063c208abdc14610323578063ca1d209d1461034c578063cfde189014610368578063f3a504f214610391578063f544c3a6146103bc576100fe565b806382ab890a14610269578063960384a0146102925780639d39edc9146102cf578063bd29b32f146102fa576100fe565b806363923974116100d157806363923974146101af5780636e9067fb146101da5780637c2da7aa146102175780637e69b7b014610240576100fe565b80630ae1f3b81461010357806323410a3c1461012e5780635853e10f14610159578063632636aa14610184575b600080fd5b34801561010f57600080fd5b506101186103e7565b60405161012591906113a9565b60405180910390f35b34801561013a57600080fd5b5061014361040d565b60405161015091906113fa565b60405180910390f35b34801561016557600080fd5b5061016e610433565b60405161017b91906113c4565b60405180910390f35b34801561019057600080fd5b50610199610459565b6040516101a691906113a9565b60405180910390f35b3480156101bb57600080fd5b506101c461047f565b6040516101d191906113a9565b60405180910390f35b3480156101e657600080fd5b5061020160048036036101fc9190810190610f94565b6104a5565b60405161020e9190611327565b60405180910390f35b34801561022357600080fd5b5061023e60048036036102399190810190611029565b6104ed565b005b34801561024c57600080fd5b50610267600480360361026291908101906110e4565b610514565b005b34801561027557600080fd5b50610290600480360361028b91908101906110e4565b6107f1565b005b34801561029e57600080fd5b506102b960048036036102b49190810190610f94565b6109ca565b6040516102c69190611445565b60405180910390f35b3480156102db57600080fd5b506102e46109f1565b6040516102f191906113a9565b60405180910390f35b34801561030657600080fd5b50610321600480360361031c9190810190610f6b565b610a17565b005b34801561032f57600080fd5b5061034a60048036036103459190810190611029565b610a5b565b005b610366600480360361036191908101906110e4565b610aee565b005b34801561037457600080fd5b5061038f600480360361038a9190810190610fd5565b610b5d565b005b34801561039d57600080fd5b506103a6610bbe565b6040516103b39190611445565b60405180910390f35b3480156103c857600080fd5b506103d1610bc4565b6040516103de91906113df565b60405180910390f35b600860009054906101000a900473ffffffffffffffffffffffffffffffffffffffff1681565b600460009054906101000a900473ffffffffffffffffffffffffffffffffffffffff1681565b600260009054906101000a900473ffffffffffffffffffffffffffffffffffffffff1681565b600760009054906101000a900473ffffffffffffffffffffffffffffffffffffffff1681565b600960009054906101000a900473ffffffffffffffffffffffffffffffffffffffff1681565b60006001826040516104b791906112fb565b908152602001604051809103902060009054906101000a900473ffffffffffffffffffffffffffffffffffffffff169050919050565b806000836040516104fe91906112fb565b9081526020016040518091039020819055505050565b6105526040518060400160405280600781526020017f41524249544552000000000000000000000000000000000000000000000000008152506104a5565b73ffffffffffffffffffffffffffffffffffffffff163373ffffffffffffffffffffffffffffffffffffffff161461058957600080fd5b600060606000600360009054906101000a900473ffffffffffffffffffffffffffffffffffffffff1673ffffffffffffffffffffffffffffffffffffffff1663e3a96cbd856040518263ffffffff1660e01b81526004016105ea9190611445565b60006040518083038186803b15801561060257600080fd5b505afa158015610616573d6000803e3d6000fd5b505050506040513d6000823e3d601f19601f8201168201806040525061063f9190810190610f04565b809350819450829550505050806107eb57600060608473ffffffffffffffffffffffffffffffffffffffff168460405161067991906112e4565b600060405180830381855af49150503d80600081146106b4576040519150601f19603f3d011682016040523d82523d6000602084013e6106b9565b606091505b508092508193505050600260009054906101000a900473ffffffffffffffffffffffffffffffffffffffff1673ffffffffffffffffffffffffffffffffffffffff1663d7cb6b03868460016040518463ffffffff1660e01b815260040161072293929190611342565b600060405180830381600087803b15801561073c57600080fd5b505af1158015610750573d6000803e3d6000fd5b5050505081156107e857600360009054906101000a900473ffffffffffffffffffffffffffffffffffffffff1673ffffffffffffffffffffffffffffffffffffffff1663c2b7b868876040518263ffffffff1660e01b81526004016107b59190611445565b600060405180830381600087803b1580156107cf57600080fd5b505af11580156107e3573d6000803e3d6000fd5b505050505b50505b50505050565b61082f6040518060400160405280600781526020017f41524249544552000000000000000000000000000000000000000000000000008152506104a5565b73ffffffffffffffffffffffffffffffffffffffff163373ffffffffffffffffffffffffffffffffffffffff161461086657600080fd5b6060600080600460009054906101000a900473ffffffffffffffffffffffffffffffffffffffff1673ffffffffffffffffffffffffffffffffffffffff1663c7f758a8856040518263ffffffff1660e01b81526004016108c69190611445565b60006040518083038186803b1580156108de57600080fd5b505afa1580156108f2573d6000803e3d6000fd5b505050506040513d6000823e3d601f19601f8201168201806040525061091b919081019061107d565b809350819450829550505050806109c45761093683836104ed565b600460009054906101000a900473ffffffffffffffffffffffffffffffffffffffff1673ffffffffffffffffffffffffffffffffffffffff16638412b2cf856040518263ffffffff1660e01b81526004016109919190611445565b600060405180830381600087803b1580156109ab57600080fd5b505af11580156109bf573d6000803e3d6000fd5b505050505b50505050565b600080826040516109db91906112fb565b9081526020016040518091039020549050919050565b600660009054906101000a900473ffffffffffffffffffffffffffffffffffffffff1681565b80600660006101000a81548173ffffffffffffffffffffffffffffffffffffffff021916908373ffffffffffffffffffffffffffffffffffffffff16021790555050565b600460009054906101000a900473ffffffffffffffffffffffffffffffffffffffff1673ffffffffffffffffffffffffffffffffffffffff1663c208abdc83836040518363ffffffff1660e01b8152600401610ab8929190611415565b600060405180830381600087803b158015610ad257600080fd5b505af1158015610ae6573d6000803e3d6000fd5b505050505050565b6000600660009054906101000a900473ffffffffffffffffffffffffffffffffffffffff1690506060604051610b2390611312565b604051809103902083604051602001610b3d9291906112b8565b6040516020818303038152906040529050610b588282610bea565b505050565b80600183604051610b6e91906112fb565b908152602001604051809103902060006101000a81548173ffffffffffffffffffffffffffffffffffffffff021916908373ffffffffffffffffffffffffffffffffffffffff1602179055505050565b60055481565b600360009054906101000a900473ffffffffffffffffffffffffffffffffffffffff1681565b600060608373ffffffffffffffffffffffffffffffffffffffff1683604051610c1391906112e4565b600060405180830381855af49150503d8060008114610c4e576040519150601f19603f3d011682016040523d82523d6000602084013e610c53565b606091505b508092508193505050600260009054906101000a900473ffffffffffffffffffffffffffffffffffffffff1673ffffffffffffffffffffffffffffffffffffffff1663d7cb6b0334868560006040518563ffffffff1660e01b8152600401610cbd93929190611342565b6000604051808303818588803b158015610cd657600080fd5b505af1158015610cea573d6000803e3d6000fd5b505050505081610d8457600360009054906101000a900473ffffffffffffffffffffffffffffffffffffffff1673ffffffffffffffffffffffffffffffffffffffff16633f33c24d85856040518363ffffffff1660e01b8152600401610d51929190611379565b600060405180830381600087803b158015610d6b57600080fd5b505af1158015610d7f573d6000803e3d6000fd5b505050505b50505050565b600081359050610d99816116b0565b92915050565b600081519050610dae816116b0565b92915050565b600081519050610dc3816116c7565b92915050565b600082601f830112610dda57600080fd5b8151610ded610de88261148d565b611460565b91508082526020830160208301858383011115610e0957600080fd5b610e14838284611658565b50505092915050565b600081359050610e2c816116de565b92915050565b600082601f830112610e4357600080fd5b8135610e56610e51826114b9565b611460565b91508082526020830160208301858383011115610e7257600080fd5b610e7d838284611649565b50505092915050565b600082601f830112610e9757600080fd5b8151610eaa610ea5826114b9565b611460565b91508082526020830160208301858383011115610ec657600080fd5b610ed1838284611658565b50505092915050565b600081359050610ee9816116f5565b92915050565b600081519050610efe816116f5565b92915050565b600080600060608486031215610f1957600080fd5b6000610f2786828701610d9f565b935050602084015167ffffffffffffffff811115610f4457600080fd5b610f5086828701610dc9565b9250506040610f6186828701610db4565b9150509250925092565b600060208284031215610f7d57600080fd5b6000610f8b84828501610e1d565b91505092915050565b600060208284031215610fa657600080fd5b600082013567ffffffffffffffff811115610fc057600080fd5b610fcc84828501610e32565b91505092915050565b60008060408385031215610fe857600080fd5b600083013567ffffffffffffffff81111561100257600080fd5b61100e85828601610e32565b925050602061101f85828601610d8a565b9150509250929050565b6000806040838503121561103c57600080fd5b600083013567ffffffffffffffff81111561105657600080fd5b61106285828601610e32565b925050602061107385828601610eda565b9150509250929050565b60008060006060848603121561109257600080fd5b600084015167ffffffffffffffff8111156110ac57600080fd5b6110b886828701610e86565b93505060206110c986828701610eef565b92505060406110da86828701610db4565b9150509250925092565b6000602082840312156110f657600080fd5b600061110484828501610eda565b91505092915050565b61111681611533565b82525050565b61112581611545565b82525050565b61113c61113782611551565b61168b565b82525050565b600061114d826114e5565b61115781856114fb565b9350611167818560208601611658565b6111708161169f565b840191505092915050565b6000611186826114e5565b611190818561150c565b93506111a0818560208601611658565b80840191505092915050565b6111b5816115b9565b82525050565b6111c4816115dd565b82525050565b6111d381611601565b82525050565b6111e281611625565b82525050565b60006111f3826114f0565b6111fd8185611517565b935061120d818560208601611658565b6112168161169f565b840191505092915050565b600061122c826114f0565b6112368185611528565b9350611246818560208601611658565b80840191505092915050565b600061125f600d83611528565b91507f66756e642875696e7432353629000000000000000000000000000000000000006000830152600d82019050919050565b61129b816115af565b82525050565b6112b26112ad826115af565b611695565b82525050565b60006112c4828561112b565b6004820191506112d482846112a1565b6020820191508190509392505050565b60006112f0828461117b565b915081905092915050565b60006113078284611221565b915081905092915050565b600061131d82611252565b9150819050919050565b600060208201905061133c600083018461110d565b92915050565b6000606082019050611357600083018661110d565b611364602083018561111c565b611371604083018461111c565b949350505050565b600060408201905061138e600083018561110d565b81810360208301526113a08184611142565b90509392505050565b60006020820190506113be60008301846111ac565b92915050565b60006020820190506113d960008301846111bb565b92915050565b60006020820190506113f460008301846111ca565b92915050565b600060208201905061140f60008301846111d9565b92915050565b6000604082019050818103600083015261142f81856111e8565b905061143e6020830184611292565b9392505050565b600060208201905061145a6000830184611292565b92915050565b6000604051905081810181811067ffffffffffffffff8211171561148357600080fd5b8060405250919050565b600067ffffffffffffffff8211156114a457600080fd5b601f19601f8301169050602081019050919050565b600067ffffffffffffffff8211156114d057600080fd5b601f19601f8301169050602081019050919050565b600081519050919050565b600081519050919050565b600082825260208201905092915050565b600081905092915050565b600082825260208201905092915050565b600081905092915050565b600061153e8261158f565b9050919050565b60008115159050919050565b60007fffffffff0000000000000000000000000000000000000000000000000000000082169050919050565b600061158882611533565b9050919050565b600073ffffffffffffffffffffffffffffffffffffffff82169050919050565b6000819050919050565b60006115c4826115cb565b9050919050565b60006115d68261158f565b9050919050565b60006115e8826115ef565b9050919050565b60006115fa8261158f565b9050919050565b600061160c82611613565b9050919050565b600061161e8261158f565b9050919050565b600061163082611637565b9050919050565b60006116428261158f565b9050919050565b82818337600083830152505050565b60005b8381101561167657808201518184015260208101905061165b565b83811115611685576000848401525b50505050565b6000819050919050565b6000819050919050565b6000601f19601f8301169050919050565b6116b981611533565b81146116c457600080fd5b50565b6116d081611545565b81146116db57600080fd5b50565b6116e78161157d565b81146116f257600080fd5b50565b6116fe816115af565b811461170957600080fd5b5056fea265627a7a723058202291cfd156375271b52211d91c6f69dd306ce1a416da5376597f513a751364b96c6578706572696d656e74616cf50037608060405234801561001057600080fd5b50610597806100206000396000f3fe608060405234801561001057600080fd5b506004361061004c5760003560e01c80633f33c24d146100515780639c63558a1461012c578063c2b7b8681461014a578063e3a96cbd14610178575b600080fd5b61012a6004803603604081101561006757600080fd5b81019080803573ffffffffffffffffffffffffffffffffffffffff169060200190929190803590602001906401000000008111156100a457600080fd5b8201836020820111156100b657600080fd5b803590602001918460018302840111640100000000831117156100d857600080fd5b91908080601f016020809104026020016040519081016040528093929190818152602001838380828437600081840152601f19601f82011690508083019250505050505050919291929050505061025d565b005b610134610349565b6040518082815260200191505060405180910390f35b6101766004803603602081101561016057600080fd5b8101908080359060200190929190505050610355565b005b6101a46004803603602081101561018e57600080fd5b810190808035906020019092919050505061038f565b604051808473ffffffffffffffffffffffffffffffffffffffff1673ffffffffffffffffffffffffffffffffffffffff1681526020018060200183151515158152602001828103825284818151815260200191508051906020019080838360005b83811015610220578082015181840152602081019050610205565b50505050905090810190601f16801561024d5780820380516001836020036101000a031916815260200191505b5094505050505060405180910390f35b600060405180606001604052808473ffffffffffffffffffffffffffffffffffffffff168152602001838152602001600015158152509080600181540180825580915050906001820390600052602060002090600302016000909192909190915060008201518160000160006101000a81548173ffffffffffffffffffffffffffffffffffffffff021916908373ffffffffffffffffffffffffffffffffffffffff16021790555060208201518160010190805190602001906103219291906104c6565b5060408201518160020160006101000a81548160ff0219169083151502179055505050505050565b60008080549050905090565b60016000828154811061036457fe5b906000526020600020906003020160020160006101000a81548160ff02191690831515021790555050565b6000606060008084815481106103a157fe5b906000526020600020906003020160000160009054906101000a900473ffffffffffffffffffffffffffffffffffffffff16600085815481106103e057fe5b9060005260206000209060030201600101600086815481106103fe57fe5b906000526020600020906003020160020160009054906101000a900460ff16818054600181600116156101000203166002900480601f0160208091040260200160405190810160405280929190818152602001828054600181600116156101000203166002900480156104b25780601f10610487576101008083540402835291602001916104b2565b820191906000526020600020905b81548152906001019060200180831161049557829003601f168201915b505050505091509250925092509193909250565b828054600181600116156101000203166002900490600052602060002090601f016020900481019282601f1061050757805160ff1916838001178555610535565b82800160010185558215610535579182015b82811115610534578251825591602001919060010190610519565b5b5090506105429190610546565b5090565b61056891905b8082111561056457600081600090555060010161054c565b5090565b9056fea165627a7a723058209562d8b664c0231e7f1e8d869bc058448b961c401e842fc58955a8befa4b91880029608060405234801561001057600080fd5b506104e2806100206000396000f3fe608060405234801561001057600080fd5b506004361061004c5760003560e01c80638412b2cf1461005157806398e527d31461007f578063c208abdc1461009d578063c7f758a814610162575b600080fd5b61007d6004803603602081101561006757600080fd5b810190808035906020019092919050505061021b565b005b610087610255565b6040518082815260200191505060405180910390f35b610160600480360360408110156100b357600080fd5b81019080803590602001906401000000008111156100d057600080fd5b8201836020820111156100e257600080fd5b8035906020019184600183028401116401000000008311171561010457600080fd5b91908080601f016020809104026020016040519081016040528093929190818152602001838380828437600081840152601f19601f82011690508083019250505050505050919291929080359060200190929190505050610261565b005b61018e6004803603602081101561017857600080fd5b81019080803590602001909291905050506102fa565b604051808060200184815260200183151515158152602001828103825285818151815260200191508051906020019080838360005b838110156101de5780820151818401526020810190506101c3565b50505050905090810190601f16801561020b5780820380516001836020036101000a031916815260200191505b5094505050505060405180910390f35b60016000828154811061022a57fe5b906000526020600020906003020160020160006101000a81548160ff02191690831515021790555050565b60008080549050905090565b60006040518060600160405280848152602001838152602001600015158152509080600181540180825580915050906001820390600052602060002090600302016000909192909190915060008201518160000190805190602001906102c8929190610411565b506020820151816001015560408201518160020160006101000a81548160ff0219169083151502179055505050505050565b60606000806000848154811061030c57fe5b90600052602060002090600302016000016000858154811061032a57fe5b9060005260206000209060030201600101546000868154811061034957fe5b906000526020600020906003020160020160009054906101000a900460ff16828054600181600116156101000203166002900480601f0160208091040260200160405190810160405280929190818152602001828054600181600116156101000203166002900480156103fd5780601f106103d2576101008083540402835291602001916103fd565b820191906000526020600020905b8154815290600101906020018083116103e057829003601f168201915b505050505092509250925092509193909250565b828054600181600116156101000203166002900490600052602060002090601f016020900481019282601f1061045257805160ff1916838001178555610480565b82800160010185558215610480579182015b8281111561047f578251825591602001919060010190610464565b5b50905061048d9190610491565b5090565b6104b391905b808211156104af576000816000905550600101610497565b5090565b9056fea165627a7a72305820041e2514623884b8b17c52b7c7b2839c4d0c3daf8796261c4304590f3b62ac4c0029",
  "source": "\npragma solidity ^0.5.2;\npragma experimental ABIEncoderV2;\n\nimport './BaseClause.sol';\nimport './LegalContract.sol';\n\ncontract ImpactInvestment is LegalContract {\n\n    uint256 public funded;\n\n    BaseClause public fundingClause;\n    BaseClause public investmentClause;\n    BaseClause public validationClause;\n    BaseClause public redemptionClause;\n\n    constructor(ClauseRegistry _registry, BaseClause _fundingClause, address _arbiter, string[] memory valNames, uint256[] memory values) LegalContract(_registry) public {\n        fundingClause = _fundingClause;\n        setRole('ARBITER', _arbiter);\n        for (uint i=0; i<valNames.length; i++) {\n            setValue(valNames[i], values[i]);\n        }\n    }\n\n    function setFundingClause(BaseClause clause) public {\n        fundingClause = clause;\n    }\n\n    function fund(uint256 _amount) public payable {\n        address target = address(fundingClause);\n        bytes memory data = abi.encodePacked(bytes4(keccak256(\"fund(uint256)\")), _amount);\n\n        execute(target, data);\n    }\n\n}\n",
  "sourcePath": "/Users/dhen/Documents/Alice/popsicle/contracts/ImpactInvestment.sol",
  "compiler": {
    "name": "solc",
    "version": "0.5.8+commit.23d335f2.Emscripten.clang"
  },
  "schemaVersion": "3.0.10",
  "updatedAt": "2019-08-24T22:07:20.943Z",
  "devdoc": {
    "methods": {}
  },
  "userdoc": {
    "methods": {}
  }
}