{
  "contractName": "ImpactInvestment",
  "abi": [
    {
      "constant": true,
      "inputs": [],
      "name": "validationClause",
      "outputs": [
        {
          "name": "",
          "type": "address"
        }
      ],
      "payable": false,
      "stateMutability": "view",
      "type": "function"
    },
    {
      "constant": true,
      "inputs": [],
      "name": "clauseRegistry",
      "outputs": [
        {
          "name": "",
          "type": "address"
        }
      ],
      "payable": false,
      "stateMutability": "view",
      "type": "function"
    },
    {
      "constant": true,
      "inputs": [],
      "name": "investmentClause",
      "outputs": [
        {
          "name": "",
          "type": "address"
        }
      ],
      "payable": false,
      "stateMutability": "view",
      "type": "function"
    },
    {
      "constant": true,
      "inputs": [],
      "name": "redemptionClause",
      "outputs": [
        {
          "name": "",
          "type": "address"
        }
      ],
      "payable": false,
      "stateMutability": "view",
      "type": "function"
    },
    {
      "constant": true,
      "inputs": [
        {
          "name": "symbol",
          "type": "string"
        }
      ],
      "name": "getRole",
      "outputs": [
        {
          "name": "",
          "type": "address"
        }
      ],
      "payable": false,
      "stateMutability": "view",
      "type": "function"
    },
    {
      "constant": false,
      "inputs": [
        {
          "name": "symbol",
          "type": "string"
        },
        {
          "name": "val",
          "type": "uint256"
        }
      ],
      "name": "setValue",
      "outputs": [],
      "payable": false,
      "stateMutability": "nonpayable",
      "type": "function"
    },
    {
      "constant": false,
      "inputs": [
        {
          "name": "_index",
          "type": "uint256"
        }
      ],
      "name": "appeal",
      "outputs": [],
      "payable": false,
      "stateMutability": "nonpayable",
      "type": "function"
    },
    {
      "constant": true,
      "inputs": [
        {
          "name": "symbol",
          "type": "string"
        }
      ],
      "name": "getValue",
      "outputs": [
        {
          "name": "",
          "type": "uint256"
        }
      ],
      "payable": false,
      "stateMutability": "view",
      "type": "function"
    },
    {
      "constant": true,
      "inputs": [],
      "name": "fundingClause",
      "outputs": [
        {
          "name": "",
          "type": "address"
        }
      ],
      "payable": false,
      "stateMutability": "view",
      "type": "function"
    },
    {
      "constant": false,
      "inputs": [
        {
          "name": "symbol",
          "type": "string"
        },
        {
          "name": "_role",
          "type": "address"
        }
      ],
      "name": "setRole",
      "outputs": [],
      "payable": false,
      "stateMutability": "nonpayable",
      "type": "function"
    },
    {
      "constant": true,
      "inputs": [],
      "name": "funded",
      "outputs": [
        {
          "name": "",
          "type": "uint256"
        }
      ],
      "payable": false,
      "stateMutability": "view",
      "type": "function"
    },
    {
      "constant": true,
      "inputs": [],
      "name": "disputeManager",
      "outputs": [
        {
          "name": "",
          "type": "address"
        }
      ],
      "payable": false,
      "stateMutability": "view",
      "type": "function"
    },
    {
      "inputs": [
        {
          "name": "_registry",
          "type": "address"
        },
        {
          "name": "_fundingClause",
          "type": "address"
        },
        {
          "name": "valNames",
          "type": "string[]"
        },
        {
          "name": "values",
          "type": "uint256[]"
        }
      ],
      "payable": false,
      "stateMutability": "nonpayable",
      "type": "constructor"
    },
    {
      "constant": false,
      "inputs": [
        {
          "name": "clause",
          "type": "address"
        }
      ],
      "name": "setFundingClause",
      "outputs": [],
      "payable": false,
      "stateMutability": "nonpayable",
      "type": "function"
    },
    {
      "constant": false,
      "inputs": [
        {
          "name": "_amount",
          "type": "uint256"
        }
      ],
      "name": "fund",
      "outputs": [],
      "payable": true,
      "stateMutability": "payable",
      "type": "function"
    }
  ],
  "bytecode": "0x60806040523480156200001157600080fd5b5060405162001dd738038062001dd783398101806040526200003791908101906200036c565b8380600260006101000a81548173ffffffffffffffffffffffffffffffffffffffff021916908373ffffffffffffffffffffffffffffffffffffffff1602179055506040516200008790620001b3565b604051809103906000f080158015620000a4573d6000803e3d6000fd5b50600360006101000a81548173ffffffffffffffffffffffffffffffffffffffff021916908373ffffffffffffffffffffffffffffffffffffffff1602179055505082600560006101000a81548173ffffffffffffffffffffffffffffffffffffffff021916908373ffffffffffffffffffffffffffffffffffffffff16021790555060008090505b82518110156200017f57620001718382815181106200014857fe5b60200260200101518383815181106200015d57fe5b60200260200101516200018a60201b60201c565b80806001019150506200012d565b505050505062000607565b806000836040516200019d919062000441565b9081526020016040518091039020819055505050565b6105b7806200182083390190565b600082601f830112620001d357600080fd5b8151620001ea620001e48262000488565b6200045a565b9150818183526020840193506020810190508360005b83811015620002345781518601620002198882620002f9565b84526020840193506020830192505060018101905062000200565b5050505092915050565b600082601f8301126200025057600080fd5b8151620002676200026182620004b1565b6200045a565b915081818352602084019350602081019050838560208402820111156200028d57600080fd5b60005b83811015620002c15781620002a6888262000355565b84526020840193506020830192505060018101905062000290565b5050505092915050565b600081519050620002dc81620005b9565b92915050565b600081519050620002f381620005d3565b92915050565b600082601f8301126200030b57600080fd5b8151620003226200031c82620004da565b6200045a565b915080825260208301602083018583830111156200033f57600080fd5b6200034c83828462000583565b50505092915050565b6000815190506200036681620005ed565b92915050565b600080600080608085870312156200038357600080fd5b60006200039387828801620002e2565b9450506020620003a687828801620002cb565b935050604085015167ffffffffffffffff811115620003c457600080fd5b620003d287828801620001c1565b925050606085015167ffffffffffffffff811115620003f057600080fd5b620003fe878288016200023e565b91505092959194509250565b6000620004178262000507565b62000423818562000512565b93506200043581856020860162000583565b80840191505092915050565b60006200044f82846200040a565b915081905092915050565b6000604051905081810181811067ffffffffffffffff821117156200047e57600080fd5b8060405250919050565b600067ffffffffffffffff821115620004a057600080fd5b602082029050602081019050919050565b600067ffffffffffffffff821115620004c957600080fd5b602082029050602081019050919050565b600067ffffffffffffffff821115620004f257600080fd5b601f19601f8301169050602081019050919050565b600081519050919050565b600081905092915050565b60006200052a8262000559565b9050919050565b60006200053e826200051d565b9050919050565b600062000552826200051d565b9050919050565b600073ffffffffffffffffffffffffffffffffffffffff82169050919050565b6000819050919050565b60005b83811015620005a357808201518184015260208101905062000586565b83811115620005b3576000848401525b50505050565b620005c48162000531565b8114620005d057600080fd5b50565b620005de8162000545565b8114620005ea57600080fd5b50565b620005f88162000579565b81146200060457600080fd5b50565b61120980620006176000396000f3fe6080604052600436106100dd5760003560e01c8063960384a01161007f578063ca1d209d11610059578063ca1d209d146102ae578063cfde1890146102ca578063f3a504f2146102f3578063f544c3a61461031e576100dd565b8063960384a01461021d5780639d39edc91461025a578063bd29b32f14610285576100dd565b806363923974116100bb57806363923974146101635780636e9067fb1461018e5780637c2da7aa146101cb5780637e69b7b0146101f4576100dd565b80630ae1f3b8146100e25780635853e10f1461010d578063632636aa14610138575b600080fd5b3480156100ee57600080fd5b506100f7610349565b6040516101049190610eec565b60405180910390f35b34801561011957600080fd5b5061012261036f565b60405161012f9190610f07565b60405180910390f35b34801561014457600080fd5b5061014d610395565b60405161015a9190610eec565b60405180910390f35b34801561016f57600080fd5b506101786103bb565b6040516101859190610eec565b60405180910390f35b34801561019a57600080fd5b506101b560048036036101b09190810190610b86565b6103e1565b6040516101c29190610e6a565b60405180910390f35b3480156101d757600080fd5b506101f260048036036101ed9190810190610c1b565b610429565b005b34801561020057600080fd5b5061021b60048036036102169190810190610c6f565b610450565b005b34801561022957600080fd5b50610244600480360361023f9190810190610b86565b6106b8565b6040516102519190610f3d565b60405180910390f35b34801561026657600080fd5b5061026f6106df565b60405161027c9190610eec565b60405180910390f35b34801561029157600080fd5b506102ac60048036036102a79190810190610b5d565b610705565b005b6102c860048036036102c39190810190610c6f565b610749565b005b3480156102d657600080fd5b506102f160048036036102ec9190810190610bc7565b6107b8565b005b3480156102ff57600080fd5b50610308610819565b6040516103159190610f3d565b60405180910390f35b34801561032a57600080fd5b5061033361081f565b6040516103409190610f22565b60405180910390f35b600760009054906101000a900473ffffffffffffffffffffffffffffffffffffffff1681565b600260009054906101000a900473ffffffffffffffffffffffffffffffffffffffff1681565b600660009054906101000a900473ffffffffffffffffffffffffffffffffffffffff1681565b600860009054906101000a900473ffffffffffffffffffffffffffffffffffffffff1681565b60006001826040516103f39190610e3e565b908152602001604051809103902060009054906101000a900473ffffffffffffffffffffffffffffffffffffffff169050919050565b8060008360405161043a9190610e3e565b9081526020016040518091039020819055505050565b600060606000600360009054906101000a900473ffffffffffffffffffffffffffffffffffffffff1673ffffffffffffffffffffffffffffffffffffffff1663e3a96cbd856040518263ffffffff1660e01b81526004016104b19190610f3d565b60006040518083038186803b1580156104c957600080fd5b505afa1580156104dd573d6000803e3d6000fd5b505050506040513d6000823e3d601f19601f820116820180604052506105069190810190610af6565b809350819450829550505050806106b257600060608473ffffffffffffffffffffffffffffffffffffffff16846040516105409190610e27565b600060405180830381855af49150503d806000811461057b576040519150601f19603f3d011682016040523d82523d6000602084013e610580565b606091505b508092508193505050600260009054906101000a900473ffffffffffffffffffffffffffffffffffffffff1673ffffffffffffffffffffffffffffffffffffffff1663d7cb6b03868460016040518463ffffffff1660e01b81526004016105e993929190610e85565b600060405180830381600087803b15801561060357600080fd5b505af1158015610617573d6000803e3d6000fd5b5050505081156106af57600360009054906101000a900473ffffffffffffffffffffffffffffffffffffffff1673ffffffffffffffffffffffffffffffffffffffff1663c2b7b868876040518263ffffffff1660e01b815260040161067c9190610f3d565b600060405180830381600087803b15801561069657600080fd5b505af11580156106aa573d6000803e3d6000fd5b505050505b50505b50505050565b600080826040516106c99190610e3e565b9081526020016040518091039020549050919050565b600560009054906101000a900473ffffffffffffffffffffffffffffffffffffffff1681565b80600560006101000a81548173ffffffffffffffffffffffffffffffffffffffff021916908373ffffffffffffffffffffffffffffffffffffffff16021790555050565b6000600560009054906101000a900473ffffffffffffffffffffffffffffffffffffffff169050606060405161077e90610e55565b604051809103902083604051602001610798929190610dfb565b60405160208183030381529060405290506107b38282610845565b505050565b806001836040516107c99190610e3e565b908152602001604051809103902060006101000a81548173ffffffffffffffffffffffffffffffffffffffff021916908373ffffffffffffffffffffffffffffffffffffffff1602179055505050565b60045481565b600360009054906101000a900473ffffffffffffffffffffffffffffffffffffffff1681565b600060608373ffffffffffffffffffffffffffffffffffffffff168360405161086e9190610e27565b600060405180830381855af49150503d80600081146108a9576040519150601f19603f3d011682016040523d82523d6000602084013e6108ae565b606091505b508092508193505050600260009054906101000a900473ffffffffffffffffffffffffffffffffffffffff1673ffffffffffffffffffffffffffffffffffffffff1663d7cb6b0334868560006040518563ffffffff1660e01b815260040161091893929190610e85565b6000604051808303818588803b15801561093157600080fd5b505af1158015610945573d6000803e3d6000fd5b5050505050816109df57600360009054906101000a900473ffffffffffffffffffffffffffffffffffffffff1673ffffffffffffffffffffffffffffffffffffffff16633f33c24d85856040518363ffffffff1660e01b81526004016109ac929190610ebc565b600060405180830381600087803b1580156109c657600080fd5b505af11580156109da573d6000803e3d6000fd5b505050505b50505050565b6000813590506109f481611173565b92915050565b600081519050610a0981611173565b92915050565b600081519050610a1e8161118a565b92915050565b600082601f830112610a3557600080fd5b8151610a48610a4382610f85565b610f58565b91508082526020830160208301858383011115610a6457600080fd5b610a6f83828461111b565b50505092915050565b600081359050610a87816111a1565b92915050565b600082601f830112610a9e57600080fd5b8135610ab1610aac82610fb1565b610f58565b91508082526020830160208301858383011115610acd57600080fd5b610ad883828461110c565b50505092915050565b600081359050610af0816111b8565b92915050565b600080600060608486031215610b0b57600080fd5b6000610b19868287016109fa565b935050602084015167ffffffffffffffff811115610b3657600080fd5b610b4286828701610a24565b9250506040610b5386828701610a0f565b9150509250925092565b600060208284031215610b6f57600080fd5b6000610b7d84828501610a78565b91505092915050565b600060208284031215610b9857600080fd5b600082013567ffffffffffffffff811115610bb257600080fd5b610bbe84828501610a8d565b91505092915050565b60008060408385031215610bda57600080fd5b600083013567ffffffffffffffff811115610bf457600080fd5b610c0085828601610a8d565b9250506020610c11858286016109e5565b9150509250929050565b60008060408385031215610c2e57600080fd5b600083013567ffffffffffffffff811115610c4857600080fd5b610c5485828601610a8d565b9250506020610c6585828601610ae1565b9150509250929050565b600060208284031215610c8157600080fd5b6000610c8f84828501610ae1565b91505092915050565b610ca18161101a565b82525050565b610cb08161102c565b82525050565b610cc7610cc282611038565b61114e565b82525050565b6000610cd882610fdd565b610ce28185610ff3565b9350610cf281856020860161111b565b610cfb81611162565b840191505092915050565b6000610d1182610fdd565b610d1b8185611004565b9350610d2b81856020860161111b565b80840191505092915050565b610d40816110a0565b82525050565b610d4f816110c4565b82525050565b610d5e816110e8565b82525050565b6000610d6f82610fe8565b610d79818561100f565b9350610d8981856020860161111b565b80840191505092915050565b6000610da2600d8361100f565b91507f66756e642875696e7432353629000000000000000000000000000000000000006000830152600d82019050919050565b610dde81611096565b82525050565b610df5610df082611096565b611158565b82525050565b6000610e078285610cb6565b600482019150610e178284610de4565b6020820191508190509392505050565b6000610e338284610d06565b915081905092915050565b6000610e4a8284610d64565b915081905092915050565b6000610e6082610d95565b9150819050919050565b6000602082019050610e7f6000830184610c98565b92915050565b6000606082019050610e9a6000830186610c98565b610ea76020830185610ca7565b610eb46040830184610ca7565b949350505050565b6000604082019050610ed16000830185610c98565b8181036020830152610ee38184610ccd565b90509392505050565b6000602082019050610f016000830184610d37565b92915050565b6000602082019050610f1c6000830184610d46565b92915050565b6000602082019050610f376000830184610d55565b92915050565b6000602082019050610f526000830184610dd5565b92915050565b6000604051905081810181811067ffffffffffffffff82111715610f7b57600080fd5b8060405250919050565b600067ffffffffffffffff821115610f9c57600080fd5b601f19601f8301169050602081019050919050565b600067ffffffffffffffff821115610fc857600080fd5b601f19601f8301169050602081019050919050565b600081519050919050565b600081519050919050565b600082825260208201905092915050565b600081905092915050565b600081905092915050565b600061102582611076565b9050919050565b60008115159050919050565b60007fffffffff0000000000000000000000000000000000000000000000000000000082169050919050565b600061106f8261101a565b9050919050565b600073ffffffffffffffffffffffffffffffffffffffff82169050919050565b6000819050919050565b60006110ab826110b2565b9050919050565b60006110bd82611076565b9050919050565b60006110cf826110d6565b9050919050565b60006110e182611076565b9050919050565b60006110f3826110fa565b9050919050565b600061110582611076565b9050919050565b82818337600083830152505050565b60005b8381101561113957808201518184015260208101905061111e565b83811115611148576000848401525b50505050565b6000819050919050565b6000819050919050565b6000601f19601f8301169050919050565b61117c8161101a565b811461118757600080fd5b50565b6111938161102c565b811461119e57600080fd5b50565b6111aa81611064565b81146111b557600080fd5b50565b6111c181611096565b81146111cc57600080fd5b5056fea265627a7a723058206b920dcb7ae2275c8200f3f607ad778a590856cba2ff7710ee9bb4fe235b081b6c6578706572696d656e74616cf50037608060405234801561001057600080fd5b50610597806100206000396000f3fe608060405234801561001057600080fd5b506004361061004c5760003560e01c80633f33c24d146100515780639c63558a1461012c578063c2b7b8681461014a578063e3a96cbd14610178575b600080fd5b61012a6004803603604081101561006757600080fd5b81019080803573ffffffffffffffffffffffffffffffffffffffff169060200190929190803590602001906401000000008111156100a457600080fd5b8201836020820111156100b657600080fd5b803590602001918460018302840111640100000000831117156100d857600080fd5b91908080601f016020809104026020016040519081016040528093929190818152602001838380828437600081840152601f19601f82011690508083019250505050505050919291929050505061025d565b005b610134610349565b6040518082815260200191505060405180910390f35b6101766004803603602081101561016057600080fd5b8101908080359060200190929190505050610355565b005b6101a46004803603602081101561018e57600080fd5b810190808035906020019092919050505061038f565b604051808473ffffffffffffffffffffffffffffffffffffffff1673ffffffffffffffffffffffffffffffffffffffff1681526020018060200183151515158152602001828103825284818151815260200191508051906020019080838360005b83811015610220578082015181840152602081019050610205565b50505050905090810190601f16801561024d5780820380516001836020036101000a031916815260200191505b5094505050505060405180910390f35b600060405180606001604052808473ffffffffffffffffffffffffffffffffffffffff168152602001838152602001600015158152509080600181540180825580915050906001820390600052602060002090600302016000909192909190915060008201518160000160006101000a81548173ffffffffffffffffffffffffffffffffffffffff021916908373ffffffffffffffffffffffffffffffffffffffff16021790555060208201518160010190805190602001906103219291906104c6565b5060408201518160020160006101000a81548160ff0219169083151502179055505050505050565b60008080549050905090565b60016000828154811061036457fe5b906000526020600020906003020160020160006101000a81548160ff02191690831515021790555050565b6000606060008084815481106103a157fe5b906000526020600020906003020160000160009054906101000a900473ffffffffffffffffffffffffffffffffffffffff16600085815481106103e057fe5b9060005260206000209060030201600101600086815481106103fe57fe5b906000526020600020906003020160020160009054906101000a900460ff16818054600181600116156101000203166002900480601f0160208091040260200160405190810160405280929190818152602001828054600181600116156101000203166002900480156104b25780601f10610487576101008083540402835291602001916104b2565b820191906000526020600020905b81548152906001019060200180831161049557829003601f168201915b505050505091509250925092509193909250565b828054600181600116156101000203166002900490600052602060002090601f016020900481019282601f1061050757805160ff1916838001178555610535565b82800160010185558215610535579182015b82811115610534578251825591602001919060010190610519565b5b5090506105429190610546565b5090565b61056891905b8082111561056457600081600090555060010161054c565b5090565b9056fea165627a7a723058209562d8b664c0231e7f1e8d869bc058448b961c401e842fc58955a8befa4b91880029",
  "source": "\npragma solidity ^0.5.2;\npragma experimental ABIEncoderV2;\n\nimport './BaseClause.sol';\nimport './LegalContract.sol';\n\ncontract ImpactInvestment is LegalContract {\n\n    uint256 public funded;\n\n    BaseClause public fundingClause;\n    BaseClause public investmentClause;\n    BaseClause public validationClause;\n    BaseClause public redemptionClause;\n\n    constructor(ClauseRegistry _registry, BaseClause _fundingClause, string[] memory valNames, uint256[] memory values) LegalContract(_registry) public {\n        fundingClause = _fundingClause;\n        for (uint i=0; i<valNames.length; i++) {\n            setValue(valNames[i], values[i]);\n        }\n    }\n\n    function setFundingClause(BaseClause clause) public {\n        fundingClause = clause;\n    }\n\n    function fund(uint256 _amount) public payable {\n        address target = address(fundingClause);\n        bytes memory data = abi.encodePacked(bytes4(keccak256(\"fund(uint256)\")), _amount);\n\n        execute(target, data);\n    }\n\n}\n",
  "sourcePath": "/Users/dhen/Documents/Alice/popsicle/contracts/ImpactInvestment.sol",
  "compiler": {
    "name": "solc",
    "version": "0.5.8+commit.23d335f2.Emscripten.clang"
  },
  "schemaVersion": "3.0.10",
  "updatedAt": "2019-08-24T20:25:24.238Z",
  "devdoc": {
    "methods": {}
  },
  "userdoc": {
    "methods": {}
  }
}