{
  "contractName": "LegalContract",
  "abi": [
    {
      "constant": true,
      "inputs": [],
      "name": "clauseRegistry",
      "outputs": [
        {
          "name": "",
          "type": "address"
        }
      ],
      "payable": false,
      "stateMutability": "view",
      "type": "function"
    },
    {
      "constant": true,
      "inputs": [],
      "name": "disputeManager",
      "outputs": [
        {
          "name": "",
          "type": "address"
        }
      ],
      "payable": false,
      "stateMutability": "view",
      "type": "function"
    },
    {
      "inputs": [
        {
          "name": "_registry",
          "type": "address"
        }
      ],
      "payable": false,
      "stateMutability": "nonpayable",
      "type": "constructor"
    },
    {
      "constant": false,
      "inputs": [
        {
          "name": "_index",
          "type": "uint256"
        }
      ],
      "name": "appeal",
      "outputs": [],
      "payable": false,
      "stateMutability": "nonpayable",
      "type": "function"
    },
    {
      "constant": false,
      "inputs": [
        {
          "name": "symbol",
          "type": "string"
        },
        {
          "name": "val",
          "type": "uint256"
        }
      ],
      "name": "setValue",
      "outputs": [],
      "payable": false,
      "stateMutability": "nonpayable",
      "type": "function"
    },
    {
      "constant": true,
      "inputs": [
        {
          "name": "symbol",
          "type": "string"
        }
      ],
      "name": "getValue",
      "outputs": [
        {
          "name": "",
          "type": "uint256"
        }
      ],
      "payable": false,
      "stateMutability": "view",
      "type": "function"
    },
    {
      "constant": false,
      "inputs": [
        {
          "name": "symbol",
          "type": "string"
        },
        {
          "name": "_role",
          "type": "address"
        }
      ],
      "name": "setRole",
      "outputs": [],
      "payable": false,
      "stateMutability": "nonpayable",
      "type": "function"
    },
    {
      "constant": true,
      "inputs": [
        {
          "name": "symbol",
          "type": "string"
        }
      ],
      "name": "getRole",
      "outputs": [
        {
          "name": "",
          "type": "address"
        }
      ],
      "payable": false,
      "stateMutability": "view",
      "type": "function"
    }
  ],
  "bytecode": "0x608060405234801561001057600080fd5b5060405160208061116b8339810180604052602081101561003057600080fd5b810190808051906020019092919050505080600260006101000a81548173ffffffffffffffffffffffffffffffffffffffff021916908373ffffffffffffffffffffffffffffffffffffffff16021790555060405161008e906100f1565b604051809103906000f0801580156100aa573d6000803e3d6000fd5b50600360006101000a81548173ffffffffffffffffffffffffffffffffffffffff021916908373ffffffffffffffffffffffffffffffffffffffff160217905550506100fe565b6105b780610bb483390190565b610aa78061010d6000396000f3fe608060405234801561001057600080fd5b506004361061007d5760003560e01c80637e69b7b01161005b5780637e69b7b01461028c578063960384a0146102ba578063cfde189014610389578063f544c3a6146104645761007d565b80635853e10f146100825780636e9067fb146100cc5780637c2da7aa146101c7575b600080fd5b61008a6104ae565b604051808273ffffffffffffffffffffffffffffffffffffffff1673ffffffffffffffffffffffffffffffffffffffff16815260200191505060405180910390f35b610185600480360360208110156100e257600080fd5b81019080803590602001906401000000008111156100ff57600080fd5b82018360208201111561011157600080fd5b8035906020019184600183028401116401000000008311171561013357600080fd5b91908080601f016020809104026020016040519081016040528093929190818152602001838380828437600081840152601f19601f8201169050808301925050505050505091929192905050506104d4565b604051808273ffffffffffffffffffffffffffffffffffffffff1673ffffffffffffffffffffffffffffffffffffffff16815260200191505060405180910390f35b61028a600480360360408110156101dd57600080fd5b81019080803590602001906401000000008111156101fa57600080fd5b82018360208201111561020c57600080fd5b8035906020019184600183028401116401000000008311171561022e57600080fd5b91908080601f016020809104026020016040519081016040528093929190818152602001838380828437600081840152601f19601f82011690508083019250505050505050919291929080359060200190929190505050610567565b005b6102b8600480360360208110156102a257600080fd5b81019080803590602001909291905050506105d9565b005b610373600480360360208110156102d057600080fd5b81019080803590602001906401000000008111156102ed57600080fd5b8201836020820111156102ff57600080fd5b8035906020019184600183028401116401000000008311171561032157600080fd5b91908080601f016020809104026020016040519081016040528093929190818152602001838380828437600081840152601f19601f820116905080830192505050505050509192919290505050610937565b6040518082815260200191505060405180910390f35b6104626004803603604081101561039f57600080fd5b81019080803590602001906401000000008111156103bc57600080fd5b8201836020820111156103ce57600080fd5b803590602001918460018302840111640100000000831117156103f057600080fd5b91908080601f016020809104026020016040519081016040528093929190818152602001838380828437600081840152601f19601f820116905080830192505050505050509192919290803573ffffffffffffffffffffffffffffffffffffffff1690602001909291905050506109a9565b005b61046c610a55565b604051808273ffffffffffffffffffffffffffffffffffffffff1673ffffffffffffffffffffffffffffffffffffffff16815260200191505060405180910390f35b600260009054906101000a900473ffffffffffffffffffffffffffffffffffffffff1681565b60006001826040518082805190602001908083835b6020831061050c57805182526020820191506020810190506020830392506104e9565b6001836020036101000a038019825116818451168082178552505050505050905001915050908152602001604051809103902060009054906101000a900473ffffffffffffffffffffffffffffffffffffffff169050919050565b806000836040518082805190602001908083835b6020831061059e578051825260208201915060208101905060208303925061057b565b6001836020036101000a0380198251168184511680821785525050505050509050019150509081526020016040518091039020819055505050565b600060606000600360009054906101000a900473ffffffffffffffffffffffffffffffffffffffff1673ffffffffffffffffffffffffffffffffffffffff1663e3a96cbd856040518263ffffffff1660e01b81526004018082815260200191505060006040518083038186803b15801561065257600080fd5b505afa158015610666573d6000803e3d6000fd5b505050506040513d6000823e3d601f19601f82011682018060405250606081101561069057600080fd5b810190808051906020019092919080516401000000008111156106b257600080fd5b828101905060208101848111156106c857600080fd5b81518560018202830111640100000000821117156106e557600080fd5b5050929190602001805190602001909291905050508093508194508295505050508061093157600060608473ffffffffffffffffffffffffffffffffffffffff16846040518082805190602001908083835b6020831061075a5780518252602082019150602081019050602083039250610737565b6001836020036101000a038019825116818451168082178552505050505050905001915050600060405180830381855af49150503d80600081146107ba576040519150601f19603f3d011682016040523d82523d6000602084013e6107bf565b606091505b508092508193505050600260009054906101000a900473ffffffffffffffffffffffffffffffffffffffff1673ffffffffffffffffffffffffffffffffffffffff1663d7cb6b03868460016040518463ffffffff1660e01b8152600401808473ffffffffffffffffffffffffffffffffffffffff1673ffffffffffffffffffffffffffffffffffffffff16815260200183151515158152602001821515151581526020019350505050600060405180830381600087803b15801561088257600080fd5b505af1158015610896573d6000803e3d6000fd5b50505050811561092e57600360009054906101000a900473ffffffffffffffffffffffffffffffffffffffff1673ffffffffffffffffffffffffffffffffffffffff1663c2b7b868876040518263ffffffff1660e01b815260040180828152602001915050600060405180830381600087803b15801561091557600080fd5b505af1158015610929573d6000803e3d6000fd5b505050505b50505b50505050565b600080826040518082805190602001908083835b6020831061096e578051825260208201915060208101905060208303925061094b565b6001836020036101000a0380198251168184511680821785525050505050509050019150509081526020016040518091039020549050919050565b806001836040518082805190602001908083835b602083106109e057805182526020820191506020810190506020830392506109bd565b6001836020036101000a038019825116818451168082178552505050505050905001915050908152602001604051809103902060006101000a81548173ffffffffffffffffffffffffffffffffffffffff021916908373ffffffffffffffffffffffffffffffffffffffff1602179055505050565b600360009054906101000a900473ffffffffffffffffffffffffffffffffffffffff168156fea165627a7a723058208a9487b35beae2aea1524e240592d6faa76b4c9a2622e05e453becf9eb3635e70029608060405234801561001057600080fd5b50610597806100206000396000f3fe608060405234801561001057600080fd5b506004361061004c5760003560e01c80633f33c24d146100515780639c63558a1461012c578063c2b7b8681461014a578063e3a96cbd14610178575b600080fd5b61012a6004803603604081101561006757600080fd5b81019080803573ffffffffffffffffffffffffffffffffffffffff169060200190929190803590602001906401000000008111156100a457600080fd5b8201836020820111156100b657600080fd5b803590602001918460018302840111640100000000831117156100d857600080fd5b91908080601f016020809104026020016040519081016040528093929190818152602001838380828437600081840152601f19601f82011690508083019250505050505050919291929050505061025d565b005b610134610349565b6040518082815260200191505060405180910390f35b6101766004803603602081101561016057600080fd5b8101908080359060200190929190505050610355565b005b6101a46004803603602081101561018e57600080fd5b810190808035906020019092919050505061038f565b604051808473ffffffffffffffffffffffffffffffffffffffff1673ffffffffffffffffffffffffffffffffffffffff1681526020018060200183151515158152602001828103825284818151815260200191508051906020019080838360005b83811015610220578082015181840152602081019050610205565b50505050905090810190601f16801561024d5780820380516001836020036101000a031916815260200191505b5094505050505060405180910390f35b600060405180606001604052808473ffffffffffffffffffffffffffffffffffffffff168152602001838152602001600015158152509080600181540180825580915050906001820390600052602060002090600302016000909192909190915060008201518160000160006101000a81548173ffffffffffffffffffffffffffffffffffffffff021916908373ffffffffffffffffffffffffffffffffffffffff16021790555060208201518160010190805190602001906103219291906104c6565b5060408201518160020160006101000a81548160ff0219169083151502179055505050505050565b60008080549050905090565b60016000828154811061036457fe5b906000526020600020906003020160020160006101000a81548160ff02191690831515021790555050565b6000606060008084815481106103a157fe5b906000526020600020906003020160000160009054906101000a900473ffffffffffffffffffffffffffffffffffffffff16600085815481106103e057fe5b9060005260206000209060030201600101600086815481106103fe57fe5b906000526020600020906003020160020160009054906101000a900460ff16818054600181600116156101000203166002900480601f0160208091040260200160405190810160405280929190818152602001828054600181600116156101000203166002900480156104b25780601f10610487576101008083540402835291602001916104b2565b820191906000526020600020905b81548152906001019060200180831161049557829003601f168201915b505050505091509250925092509193909250565b828054600181600116156101000203166002900490600052602060002090601f016020900481019282601f1061050757805160ff1916838001178555610535565b82800160010185558215610535579182015b82811115610534578251825591602001919060010190610519565b5b5090506105429190610546565b5090565b61056891905b8082111561056457600081600090555060010161054c565b5090565b9056fea165627a7a723058209562d8b664c0231e7f1e8d869bc058448b961c401e842fc58955a8befa4b91880029",
  "source": "\npragma solidity ^0.5.2;\n\nimport './ClauseRegistry.sol';\nimport './DisputeManager.sol';\n\ncontract LegalContract {\n\n    mapping(string => uint256) values;\n    mapping(string => address) roles;\n\n    ClauseRegistry public clauseRegistry;\n    DisputeManager public disputeManager;\n\n    constructor(ClauseRegistry _registry) public {\n        clauseRegistry = _registry;\n        disputeManager = new DisputeManager();\n    }\n\n    function execute(address target, bytes memory data) internal {\n        bool success;\n        bytes memory result;\n\n        (success, result) = target.delegatecall(data);\n        clauseRegistry.reportExecution.value(msg.value)(target, success, false);\n        if (!success) {\n            disputeManager.addDispute(target, data);\n        }\n    }\n\n    function appeal(uint256 _index) public {\n        address target;\n        bytes memory data;\n        bool appealed;\n        (target, data, appealed) = disputeManager.getDispute(_index);\n\n        if (!appealed) {\n            bool success;\n            bytes memory result;\n            (success, result) = target.delegatecall(data);\n            clauseRegistry.reportExecution(target, success, true);\n            if (success) {\n                disputeManager.resolveDispute(_index);\n            }\n        }\n    }\n\n    function setValue(string memory symbol, uint256 val) public {\n        values[symbol] = val;\n    }\n\n    function getValue(string memory symbol) public view returns(uint256) {\n        return values[symbol];\n    }\n\n    function setRole(string memory symbol, address _role) public {\n        roles[symbol] = _role;\n    }\n\n    function getRole(string memory symbol) public view returns(address) {\n        return roles[symbol];\n    }\n\n}\n",
  "sourcePath": "/Users/dhen/Documents/Alice/popsicle/contracts/LegalContract.sol",
  "compiler": {
    "name": "solc",
    "version": "0.5.8+commit.23d335f2.Emscripten.clang"
  },
  "schemaVersion": "3.0.10",
  "updatedAt": "2019-08-24T16:08:21.593Z",
  "devdoc": {
    "methods": {}
  },
  "userdoc": {
    "methods": {}
  }
}