{
  "contractName": "OpenFunding",
  "abi": [
    {
      "constant": true,
      "inputs": [],
      "name": "funded",
      "outputs": [
        {
          "name": "",
          "type": "uint256"
        }
      ],
      "payable": false,
      "stateMutability": "view",
      "type": "function"
    },
    {
      "constant": false,
      "inputs": [
        {
          "name": "_amount",
          "type": "uint256"
        }
      ],
      "name": "fund",
      "outputs": [],
      "payable": true,
      "stateMutability": "payable",
      "type": "function"
    }
  ],
  "bytecode": "0x608060405234801561001057600080fd5b506101fb806100206000396000f3fe6080604052600436106100295760003560e01c8063ca1d209d1461002e578063f3a504f21461005c575b600080fd5b61005a6004803603602081101561004457600080fd5b8101908080359060200190929190505050610087565b005b34801561006857600080fd5b5061007161009e565b6040518082815260200191505060405180910390f35b610090816100a4565b806004540160048190555050565b60045481565b3373ffffffffffffffffffffffffffffffffffffffff16600160405180807f41524249544552000000000000000000000000000000000000000000000000008152506007019050908152602001604051809103902060009054906101000a900473ffffffffffffffffffffffffffffffffffffffff1673ffffffffffffffffffffffffffffffffffffffff16146101cc57600060405180807f4d494e5f444f4e4154494f4e0000000000000000000000000000000000000000815250600c01905090815260200160405180910390205481101561018057600080fd5b600060405180807f4d41585f444f4e4154494f4e0000000000000000000000000000000000000000815250600c0190509081526020016040518091039020548111156101cb57600080fd5b5b5056fea165627a7a72305820f00e80646b01b51502559760fe921578a1bce3b7306509c38f1f4a77905f30ff0029",
  "source": "\npragma solidity ^0.5.2;\n\nimport './IFunding.sol';\nimport './BaseClause.sol';\n\ncontract OpenFunding is IFunding, BaseClause {\n\n    uint256 public funded;\n\n    function verify(uint256 _amount) private {\n        if (roles['ARBITER'] != msg.sender) {\n            require(_amount >= values['MIN_DONATION']);\n            require(_amount <= values['MAX_DONATION']);\n        }\n    }\n\n    function fund(uint256 _amount) public payable {\n        verify(_amount);\n        funded = funded + _amount;\n    }\n}\n",
  "sourcePath": "/Users/dhen/Documents/Alice/popsicle/contracts/OpenFunding.sol",
  "compiler": {
    "name": "solc",
    "version": "0.5.8+commit.23d335f2.Emscripten.clang"
  },
  "schemaVersion": "3.0.10",
  "updatedAt": "2019-08-24T16:08:21.596Z",
  "devdoc": {
    "methods": {}
  },
  "userdoc": {
    "methods": {}
  }
}